:1000000000308A00642A0000FF00030E8301A10073
:100010007F08A0000A08A8008A01A00E0408A20018
:100020007708A3007808A4007908A5007A08A6003C
:100030007B08A700831383128C308400801E222843
:100040008C1A3629220884002308F7002408F800B7
:100050002508F9002608FA002708FB0028088A006E
:10006000210E8300FF0E7F0E09000A108A100A116C
:1000700082077334693466347234653420346434EE
:100080006F3467347234753400340A108A100A11E0
:100090008207533449345334543445344D34203476
:1000A0004134433449344B342E342E342E3400340E
:1000B0000A108A100A118207733469346634723464
:1000C00065342034793461346E346C34693473347B
:1000D00021342134213400340A108A100A11820795
:1000E00073346934663472346534203463346F3465
:1000F0006B34203475347A3475346E3421342134C1
:10010000213400340A108A100A1182070C3400349A
:100110000A108A100A118207733469346634723403
:100120006534203463346F346B3420346B34693479
:100130007334613421342134213400343B18A22833
:100140000612A3280616831606128312BB18AA28C5
:100150008612AB2886168316861283123B19B228A4
:100160000613B3280617831606138312BB19BA2881
:100170008613BB28861783168613831200343A3001
:100180008400831300080319D3280130F800F70115
:10019000F70BC828F80BC7284A30F700F70BCE2812
:1001A000D128800BC5280034370EB8000F30B805B1
:1001B0003808BB009E20051483160510000083122A
:1001C0008514831685100000831285108316851010
:1001D00002308312BA00BF2037080F39B800BB00C5
:1001E0009E200514831605100000831285148316C3
:1001F000851000008312851083168510023083124B
:10020000BA00BF200034390EBA000F30BA053A08E0
:10021000BB009E2005108316051000008312851474
:100220008316851000008312851083168510023016
:100230008312BA00BF2039080F39BA00BB009E20D4
:10024000051083160510000083128514831685108F
:100250000000831285108316851002308312BA00C5
:10026000BF2000340130B9000321003483168C1202
:1002700083128C1E39291A08AA002B3030078400FB
:1002800083132A088000B00A2A080B3C031DFC29AE
:100290003008053C031D98292B08033C031D9829B1
:1002A0002C08043C031D98292D08053C031D9829A2
:1002B0002E08063C031D9829831686118312861585
:1002C000B60136083520003803196A29B60AB70086
:1002D000D4206129FA30BA00BF200130B6000230C4
:1002E000B700370B7929013036028038B800B900E1
:1002F00003213708023C031D842901303602403EA9
:100300008038B800B9000321B6013608452000380E
:1003100003198E29B60AB700D42085290430B60007
:10032000FA30BA00BF20B60B9029B0013221FC2967
:100330003008053C031DC4292B08033C031DB029CC
:100340002C08043C031DB0292D08053C031DB029D1
:100350002E08063C031DB0292F08233C0319C4298D
:10036000B6013608582000380319BA29B60AB70072
:10037000D420B1290230B600FA30BA00BF20B60B43
:10038000BC29B0013221FC293008053C0318E529BD
:10039000B60136086C2000380319D229B60AB70016
:1003A000D420C9290230B600FA30BA00BF20B60BFB
:1003B000D429B001B6013608822000380319E42997
:1003C000B60AB700D420DB29FC293008043C031C02
:1003D000FC29B6013608882000380319F329B60A2B
:1003E000B700D420EA290230B600FA30BA00BF20A4
:1003F000B60BF529B001322183168C1683128C12AC
:100400008A112228B2010510831605108312851067
:10041000831685108312A9018B1BA9178B131E301D
:10042000BA00BF20A91B8B17B2013208033C031C82
:100430002D2AA9018B1BA9178B130330B9000321A7
:10044000A91B8B17A9018B1BA9178B130530BA00A9
:10045000BF20A91B8B17B20A152AA9018B1BA9174C
:100460008B130230B9000321A91B8B17A9018B1B29
:10047000A9178B132830B9000321A91B8B17A901D9
:100480008B1BA9178B130830B9000321A91B8B17ED
:10049000A9018B1BA9178B130C30B9000321A91BD1
:1004A0008B17A9018B1BA9178B130630B9000321E9
:1004B000A91B8B17A9018B1BA9178B130130B9003E
:1004C0000321A91B8B17752A840183131F30830511
:1004D000193083169900A23098009030831298004A
:1004E00007309F00B001B101022A83168C16C0307C
:1004F00083128B04831605158312051D832A831628
:10050000861183128611831606148312061C962AFE
:1005100083168611083083128606A9018B1BA91742
:100520008B13FA30BA00BF20A91B8B177A2A6300FD
:02400E00613F10
:00000001FF
;PIC16F628A
