:1000000000308A00122900000A108A100A118207A3
:10001000733469347334743465346D342034693422
:10002000633469346E3400340A108A100A1182076E
:1000300053344934463452344534203447344934F7
:10004000523449344E342E342E340034253084005A
:100050008313000803193A280130F800F701F70B61
:100060002F28F80B2E284A30F700F70B35283828B0
:10007000800B2C28003426183F280612402806162C
:10008000831606128312A618472886124828861659
:1000900083168612831226194F2806135028061736
:1000A000831606138312A619572886135828861715
:1000B0008316861383120034240EA5000F30A50585
:1000C0002508A6003B2005108316051000008312AA
:1000D0008514831685100000831285108316851001
:1000E00002308312A500262024080F39A500A6009F
:1000F0003B2005108316051000008312851483161B
:10010000851000008312851083168510023083123B
:10011000A50026200034A1010510831605108312C6
:100120008510831685101E308312A5002620A1019C
:100130002108033C031CA4280330A4005C200530E4
:10014000A5002620A10A98280230A4005C202830AF
:10015000A4005C200830A4005C200C30A4005C20CB
:100160000630A4005C200130A4005C202229220E6D
:10017000A3000F30A3052308A6003B200514831617
:100180000510000083128514831685100000831269
:1001900085108316851002308312A50026202208C0
:1001A0000F39A300A6003B2005148316051000009C
:1001B0008312851483168510000083128510831620
:1001C000851002308312A50026200034220BEE2871
:1001D000013021028038A300A4005C202208023CE8
:1001E000031DF92801302102403E8038A300A400FD
:1001F0005C203129A10183160515831205192114EC
:100200008316851583128519A1148316051683128A
:10021000051A21158316061483120618A115210844
:10022000F8000034840183131F30830583168E1574
:1002300019309900A230980090308312980007304E
:100240009F008B28A10121080420003803192C29C4
:10025000A10AA200B72023290130A1000230A20088
:10026000E628A10121081420003803193B29A10A1E
:10027000A200B7203229FA20F80803194A29FA20E7
:100280007808A10078080C1E43299900FA30A500CF
:0802900026203B293B296300F5
:02400E00503F21
:00000001FF
;PIC16F628A
